:100000000C94F8010C9429020C9429020C942902F6
:100010000C9429020C9429020C9429020C942902B4
:100020000C9429020C9429020C9429020C942902A4
:100030000C9429020C9429020C9429020C94290294
:100040000C9429020C94C8460C9429020C942902A1
:100050000C9429020C9429020C9429020C946945F1
:100060000C9429020C94DD450C94B3450C942902A0
:100070000C9429020C9429020C9429020C94290254
:100080000C949A460C9429020C9429020C94134661
:100090000C9429020C9429020C9429020C94290234
:1000A0000C9429020C9429020C946C460C9429029D
:1000B0000C9429020C9429020C9429020C943E46BB
:1000C0000C9429020C9429020C9429020C94290204
:1000D0000C9429020C9429020C9429020C942902F4
:1000E0000C9429020C94E02A0C94B22F0C94BF02B9
:1000F0000C943B4D0C94D4020C9482050C94E403B4
:100100000C9407060C94E2020C9449040C94CE0261
:100110000C94CF040C94F0020C94FA020C94080492
:100120000C94B9020C94EE030C94D5030C94424C3D
:100130000C9435040C9453040C94554C0C94F90213
:100140000C941C040C94AD470C942E220C94670460
:100150000C94BF1E0C94C3020C9412040C9413054F
:100160000C94C64D0C94A94C0C949C4C0C94BA0560
:100170000C94F4020C94144D0C945D040C94DA036A
:100180000C94532A0C94E6020C94D8020C94CD03E0
:100190000C9494230C94EC020C94B52F0C94EA4B21
:1001A0000C94CB020C9474050C94FE020C94000485
:1001B0000C9404050C94C7020C94F8030C94DE0212
:1001C0000C94F3160C94234C0C9426040C94420AC1
:1001D0000C943F040C94881658012C0171012701DE
:1001E0008D012201AC011D01CD011801F2011301A5
:1001F0001A020E014602090176020401AB02FF0059
:10020000E502FA002503F5006B03F000B903EB00EB
:100210000E04E6006C04E100D404DC004705D700BE
:10022000C505D2005106CD00EB06C8009507C300F6
:100230005008BE001F09B900020AB400FB0AAF0053
:100240000D0CAA00380DA5007F0EA000E20F9B0048
:100250006311960002139100C0148C009B16870056
:1002600092188200A41A7D00CD1C7800091F73002B
:1002700053216E00A5236900FA2564004A285F0017
:100280008F2A5A00C22C5500DE2E5000DD304B0064
:10029000BB3246007434410008363C0075373700E5
:1002A000BB383200DB392D00D83A2800B43B23009C
:1002B000703C1E00113D1900993D14000B3E0F00CB
:1002C0006A3E0A00B93E0500F93E00000000210028
:1002D000240027002A002D00300033000101000017
:1002E000040107010A0100002200250028002B005C
:1002F0002E003100340002010000050108010B014D
:10030000000020002300260029002C002F003200CE
:1003100000010000030106010901050505050705A7
:1003200008080808020202020A0A08080404040471
:10033000010101010101010103030303030303039D
:10034000040707070C0C0C0C0C0C0C0C020202022C
:1003500006060606060606060B0B0B0B0B0B0B0B15
:1003600001021020200808102040102040800201C7
:1003700002010804020101020408102040808040AC
:1003800020100804020180040201804020100804AB
:100390000201080402010102040810204080010249
:1003A00004081020408000000A0B02090C0D0E0802
:1003B000070304010000000000000000000000002E
:1003C000000000000000000000000000000000002D
:1003D00000001211100000000000000000000000EA
:1003E000000000000000000000000000AD47C64D06
:1003F00011241FBECFEFD1E2DEBFCDBF00E00CBFA6
:1004000012E0A0E0B2E0E8E5F2EA00E00BBF02C0D3
:1004100007900D92AC3EB107D9F721E2ACEEB2E005
:1004200001C01D92AB35B207E1F711E0C7EFD1E093
:1004300000E006C021970109802FFE010E948B4F2A
:10044000C63FD10780E00807A9F70E9415490C9420
:100450001A510C9400008230910538F0880F991FD2
:10046000880F991F05970197F1F708958F929F9232
:10047000AF92BF92FF920F931F93CF93DF93F090B1
:10048000A21E2FE22F1508F44CC02091A41E08E5EF
:1004900012E0021B110927FD1395000F111F000F19
:1004A000111F2091A31EC8E8D0E0C21BD10927FD6F
:1004B000D395CC0FDD1FCC0FDD1F4E010D2E000C90
:1004C000AA08BB089801012E000C440B550B2819F3
:1004D00039094A095B09DC010E941E4F24EB30E018
:1004E00040E050E00E94F44E820E931EA41EB51E02
:1004F0008C169D062CF0E801801691060CF4E401A0
:100500002297CC0FDD1F2FB7F8948F2D90E0FC01C0
:10051000EE0FFF1FE80FF91FE552F34ED283C183A0
:100520002FBFDF91CF911F910F91FF90BF90AF90A0
:100530009F908F9008958150823108F05AC0E82F23
:10054000F0E08827E955FD4F8F4F0C948B4FC70281
:10055000CB02B902BF02C302F902CE02D402D80212
:10056000DE02E202E602EC02F002F902F402FA0212
:10057000FE02809180008F778093800008958091A3
:1005800080008F7DF9CF80918000877FF5CF84B583
:100590008F7784BD089584B58F7DFBCF8091B000A7
:1005A0008F778093B00008958091B0008F7DF9CF50
:1005B000809190008F7780939000089580919000B3
:1005C0008F7DF9CF80919000877FF5CF8091A0003B
:1005D0008F778093A00008958091A0008F7DF9CF40
:1005E0008091A000877FF5CF809120018F77809345
:1005F00020010895809120018F7DF9CF8091200105
:10060000877FF5CFCF93DF93282F30E0F901EA55AC
:10061000FC4F8491F901E05AFC4FD491F901E65E58
:10062000FC4FC491CC23A1F081110E949B02EC2FBE
:10063000F0E0EE0FFF1FE050FD4FA591B491EC915B
:10064000ED2381E090E009F480E0DF91CF910895FF
:1006500080E090E0FACF1F93CF93DF93282F30E014
:10066000F901EA55FC4F8491F901E05AFC4FD4910D
:10067000F901E65EFC4FC491CC23A9F0162F81113D
:100680000E949B02EC2FF0E0EE0FFF1FEA51FD4F9E
:10069000A591B4918FB7F894EC91111108C0D09541
:1006A000DE23DC938FBFDF91CF911F910895DE2B66
:1006B000F8CFCF93DF9390E0FC01E05AFC4F2491F8
:1006C000865E9C4FFC0184918823C9F090E0880FDE
:1006D000991FFC01E453FD4FA591B491FC01EA512F
:1006E000FD4FC591D49161110DC09FB7F8948C91C5
:1006F000209582238C938881282328839FBFDF91B4
:10070000CF910895623051F49FB7F8943C91822FB5
:10071000809583238C93E8812E2BEFCF8FB7F894AD
:10072000EC912E2B2C938FBFEACF1F93CF93DF93A7
:10073000182FEB0161E00E945903209739F460E023
:10074000812FDF91CF911F910C942B03CF3FD105C7
:1007500011F461E0F5CFE12FF0E0EA55FC4FE491B0
:10076000E150E23108F0B3C0F0E08827E554FC4FD7
:100770008F4F0C948B4FCD03D503DA03E403EE03C4
:100780006704F8030004080412041C04260435045A
:100790003F046704490453045D0484B5806884BD44
:1007A000C7BDDF91CF911F91089584B5806284BD4C
:1007B000C8BDF7CF80918000806880938000D0937F
:1007C0008900C0938800EDCF809180008062809383
:1007D0008000D0938B00C0938A00E3CF809180008B
:1007E000886080938000D0938D00C0938C00D9CF17
:1007F0008091B00080688093B000C093B300D1CFE7
:100800008091B00080628093B000C093B400C9CFE3
:1008100080919000806880939000D0939900C0935D
:100820009800BFCF80919000806280939000D09319
:100830009B00C0939A00B5CF809190008860809310
:100840009000D0939D00C0939C00ABCF8091A000FE
:1008500080688093A0008091A0008F7B8093A0008F
:10086000D093A900C093A8009CCF8091A000806283
:100870008093A000D093AB00C093AA0092CF809148
:10088000A00088608093A000D093AD00C093AC001E
:1008900088CF80912001806880932001D093290126
:1008A000C09328017ECF8091200180628093200137
:1008B000D0932B01C0932A0174CF809120018860CE
:1008C00080932001D0932D01C0932C016ACFC038B2
:1008D000D1050CF03ECF33CF3FB7F8948091281C60
:1008E0009091291CA0912A1CB0912B1C26B5A89B85
:1008F00005C02F3F19F00196A11DB11D3FBFBA2FB2
:10090000A92F982F8827BC01CD01620F711D811D71
:10091000911D42E0660F771F881F991F4A95D1F7F6
:1009200008958F929F92AF92BF92CF92DF92EF92F3
:10093000FF924B015C010E946C046B017C010E94E0
:100940006C046C197D098E099F09683E734081050E
:100950009105A8F321E0821A9108A108B10888EE58
:10096000C80E83E0D81EE11CF11C81149104A1047F
:10097000B10429F7FF90EF90DF90CF90BF90AF9038
:100980009F908F9008952FB7F8946091241C7091D8
:10099000251C8091261C9091271C2FBF0895AF9293
:1009A000BF92CF92DF92EF92FF920F931F93CF935C
:1009B000DF936C017B018B01040F151FEB015E01BE
:1009C000AE18BF08C017D10759F06991D601ED9153
:1009D000FC910190F081E02DC6011995892B79F7E2
:1009E000C501DF91CF911F910F91FF90EF90DF90A4
:1009F000CF90BF90AF90089542E150E06CE27CE16F
:100A00008EE39CE10C94CF04FC01538D448D252F83
:100A100030E0842F90E0821B930B541710F0CF9698
:100A2000089501970895FC01918D828D981761F0CA
:100A3000A28DAE0FBF2FB11D5D968C91928D9F5FE1
:100A40009F73928F90E008958FEF9FEF08958F929C
:100A50009F92AF92BF92EF92FF920F931F93CF930B
:100A6000DF937B018C01D0E0C0E00E94C30460935F
:100A7000461C7093471C8093481C9093491C8EE33E
:100A80009CE10E94130597FF27C00E94C304809039
:100A9000461C9090471CA090481CB090491C6819B7
:100AA00079098A099B098090421C9090431CA09070
:100AB000441CB090451C681579058A059B05F8F221
:100AC000CE01DF91CF911F910F91FF90EF90BF90DA
:100AD000AF909F908F900895F80181938F01219698
:100AE000EC16FD0611F6ECCFFC01918D828D981766
:100AF00031F0828DE80FF11D858D90E008958FEF24
:100B00009FEF0895FC01918D228D892F90E0805CEC
:100B10009F4F821B91098F73992708958EE39CE163
:100B20000E94820521E0892B09F420E0822F08959C
:100B3000FC01A48DA80FB92FB11DA35ABF4F2C9152
:100B4000848D90E001968F739927848FA689B78949
:100B50002C93A089B1898C91837080648C93938D40
:100B6000848D981306C00288F389E02D80818F7DE3
:100B700080830895EF92FF920F931F93CF93DF939B
:100B8000EC0181E0888F9B8D8C8D98131AC0E889C9
:100B9000F989808185FF15C09FB7F894EE89FF8998
:100BA0006083E889F98980818370806480839FBF36
:100BB00081E090E0DF91CF911F910F91FF90EF9036
:100BC0000895F62E0B8D10E00F5F1F4F0F73112746
:100BD000E02E8C8D8E110CC00FB607FCFACFE88981
:100BE000F989808185FFF5CFCE010E949805F1CF6C
:100BF000EB8DEC0FFD2FF11DE35AFF4FF0829FB7F5
:100C0000F8940B8FEA89FB8980818062CFCFCF93E4
:100C1000DF93EC01888D8823B9F0AA89BB89E88924
:100C2000F9898C9185FD03C0808186FD0DC00FB6CA
:100C300007FCF7CF8C9185FFF2CF808185FFEDCF48
:100C4000CE010E949805E9CFDF91CF91089580E011
:100C500090E0892B29F00E948E0581110E940000EE
:100C600080E090E0892B49F080E090E0892B29F02A
:100C70000E94000081110E94000080E090E0892B1A
:100C800049F080E090E0892B29F00E94000081115A
:100C90000E94000080E090E0892B49F080E090E025
:100CA000892B29F00E94000081110C940000089506
:100CB0004F925F926F927F92AF92BF92CF92DF92EC
:100CC000EF92FF920F931F93CF93DF93FC0120E1EC
:100CD00030E050E040E09081963308F096537091F8
:100CE0007B00692F6870777F672B60937B0097701C
:100CF000906490937C0090917A00906490937A0035
:100D000080917A0086FDFCCF809178006091790017
:100D1000762F682F460F571F21503109E1F624E046
:100D200030E061E070E0CB01243F310509F477C089
:100D3000D901A852BE4FFD01C591D4916F5F7F4F7D
:100D4000F90134964C175D070CF067C00197880FC6
:100D5000991F880F991FEC01C652DE4FFE01E590E6
:100D6000F49088529E4FFC0165917491F901E6520E
:100D7000FE4F05911491FE01C590D490FD01C591DF
:100D8000D491FC01A590B490CA01861B970BBC01BD
:100D9000072E000C880B990B0E94D74D2B013C01AC
:100DA000B8016C197D09072E000C880B990B0E9465
:100DB000D74D9B01AC01C301B2010E94364E2B01FD
:100DC0003C01BE016A197B09072E000C880B990BA8
:100DD0000E94D74D9B01AC01C301B2010E9450504B
:100DE0002B013C01B701FF0C880B990B0E94D74DDA
:100DF0009B01AC01C301B2010E94E44FDF91CF918E
:100E00001F910F91FF90EF90DF90CF90BF90AF9028
:100E10007F906F905F904F9008959F0184CFEAEC90
:100E2000F2E08591949160E070E0CB01E7CFAF9262
:100E3000BF92CF92DF92EF92FF920F931F93CF93C7
:100E4000DF936B017A01EC01C053DC4F28813CE059
:100E5000389F8001399F100D1124A0906B1DB12C7B
:100E600027FF1FC0FB011182108288818F5F88835A
:100E700088819801280F311D87FD3A95F6012A15C2
:100E80003B051CF488818C30C4F1808191810496EB
:100E900080349C4908F473C0F601808191810496E6
:100EA00070C088819801280F311D87FD3A952A1559
:100EB0003B05DCF68881A801480F511D87FD5A9536
:100EC000FA01EE0FFF1FE40FF51FE552F34E80818C
:100ED00086FFCBCF8881F801E80FF11D87FDFA95D9
:100EE000CF01EE0FFF1FE80FF91FE552F34E80818F
:100EF00060E08F730E942B03B8CF8081918128819D
:100F0000A801420F511D27FD5A959A01FA01EE0FD3
:100F1000FF1FE20FF31FE552F34E21813281820F52
:100F2000931FF7019183808388819801280F311DD9
:100F300087FD3A95F901EE0FFF1FE20FF31FE5520F
:100F4000F34E808186FF22C08881080F111D87FD26
:100F50001A95F801EE0FFF1FE00FF11FE552F34E57
:100F6000808161E08F73DF91CF911F910F91FF908E
:100F7000EF90DF90CF90BF90AF900C942B0380E464
:100F80009CE9F701918380838FEF8883DF91CF9174
:100F90001F910F91FF90EF90DF90CF90BF90AF9097
:100FA00008958F929F92AF92BF92CF92DF92EF926D
:100FB000FF92CF93DF93EC01EE8DFF8DC080D18047
:100FC000E280F380CEA2DFA2E8A6F9A6EC8DFD8D2B
:100FD00080819181A281B3818AA79BA7ACA7BDA77D
:100FE0008EA89FA8A8ACB9ACA5019401C701B60111
:100FF0000E94F15018162CF48EA29FA2A8A6B9A6A2
:101000000CC08AA89BA8ACA8BDA8A5019401C701E3
:10101000B6010E94D04D87FDEFCFDF91CF91FF90B9
:10102000EF90DF90CF90BF90AF909F908F900895FA
:101030004F925F926F927F928F929F92AF92BF92E8
:10104000CF92DF92EF92FF920F931F93CF93DF9394
:1010500000D000D0CDB7DEB79E838D832A013B013F
:101060004801590120E030E0A901CB01B2010E9402
:10107000D04D87FD89C020E030E0A901C501B8014D
:101080000E94D04D87FD80C020E030E0A901C7015B
:10109000B6010E94D04D87FD77C081E0ED81FE81D1
:1010A000228D338D2130310509F080E0ED81FE8104
:1010B00083AF408251826282738284829582A6824B
:1010C000B782C086D186E286F38666A577A580A919
:1010D00091A90E94D54D20E030E04AE754E40E94F7
:1010E000505069837A838B839C83ED81FE81448693
:1010F0005586668677869B01AC01C501B4010E94C6
:10110000364E4B015C01ED81FE81808A918AA28A74
:10111000B38A29813A814B815C81C701B6010E9463
:1011200050506B017C01ED81FE81C48AD58AE68A2C
:10113000F78A808D918D019739F5A301920160E0C6
:1011400070E0CB010E94E34FED81FE8164877587DB
:1011500086879787A501940160E070E0CB010E942B
:10116000E34FED81FE81608B718B828B938BA701A6
:10117000960160E070E0CB010E94E34FED81FE81BB
:10118000648B758B868B978B26960FB6F894DEBF93
:101190000FBECDBFDF91CF911F910F91FF90EF90C8
:1011A000DF90CF90BF90AF909F908F907F906F9087
:1011B0005F904F9008952F923F924F925F926F925F
:1011C0007F928F929F92AF92BF92CF92DF92EF92D7
:1011D000FF920F931F93CF93DF93CDB7DEB7609746
:1011E0000FB6F894DEBF0FBECDBFDC01DA96BC911E
:1011F000BD83B1111BC01D828D8160960FB6F8941E
:10120000DEBF0FBECDBFDF91CF911F910F91FF9039
:10121000EF90DF90CF90BF90AF909F908F907F9096
:101220006F905F904F903F902F900895988B8F878D
:101230000E94C3046E837F8388879987EF85F8892E
:1012400082A193A1A4A1B5A14E815F816885798512
:10125000481B590B6A0B7B0B86A597A5A0A9B1A9C2
:10126000481759076A077B0730F2048CF58DE02D8B
:1012700080819181A281B38189839A83AB83BC836E
:10128000AF85B8899096ED91FC9129813A814B8187
:101290005C8160817181828193810E94E34F4B0167
:1012A0005C01EF85F88922A533A544A555A5698180
:1012B0007A818B819C810E94E34F6B017C01AF8519
:1012C000B88950962D913D914D915C915397C501F0
:1012D000B4010E94364EEF85F88926A137A140A5BA
:1012E00051A50E94E44F2B013C01AF85B889969629
:1012F0004D925D926D927C929997DB96BC91BA87E4
:10130000B11118C0EF85F889248535854685578544
:10131000C701B6010E94364E9B01AC01C301B20168
:101320000E94E34FAF85B88996966D937D938D9318
:101330009C939997EF85F88946A057A060A471A463
:1013400016A907A930AC21AC212F302F432D522DE7
:10135000C301B2010E94F15018160CF076C0812F23
:10136000902FA32DB22DEF85F88986A397A3A0A770
:10137000B1A7FA85FF2309F481C0AF85B8891C960F
:101380002D913D914D915C911F97C501B4010E9433
:10139000364E4B015C01EF85F889248935894689F1
:1013A0005789C701B6010E94364E9B01AC01AF853B
:1013B000B88996966D917D918D919C9199970E9497
:1013C000E34FA50194010E94E44F6B017C019B0156
:1013D000AC01612F702F832D922D0E94D04D87FD7F
:1013E00014C0EF85F88912A903A934A825A8212FD4
:1013F000302F432D522DB601C7010E94D04D87FDDD
:1014000004C01C2D0D2D3E2C2F2CAF85B8895E9667
:10141000ED91FC91812F902FA32DB22D808391838C
:10142000A283B38389819A81AB81BC81EF85F889DE
:1014300082A793A7A4A7B5A78E819F81A885B98508
:1014400082A393A3A4A3B5A3D7CEAF85B889D29620
:101450008D919D910D90BC91A02D8B879C87AD8720
:10146000BE879C01AD01C301B2010E94D04D87FF30
:1014700080CF8B859C85AD85BE8575CF812C912CC9
:10148000540189CF0895CF93DF93FC01C081D181AE
:101490000E94C304C61BD70B8D2F881F8827881F67
:1014A000DF91CF9108958EBD00000DB407FEFDCFF2
:1014B0008EB50895FC01928183819CBD8DBD81E034
:1014C000878360E085810E942B038FEF0C94530A81
:1014D0008FEF0C94530A0F931F93CF93DF931F92B8
:1014E0001F92CDB7DEB78C010E94C304600F711F3D
:1014F0007A8369830E94680A8F3F71F0CE0101965A
:101500000E94430A8823B1F380E00F900F90DF918F
:10151000CF911F910F91089581E0F7CFCF93DF9383
:10152000FC012781222349F0EC0161E085810E94C2
:101530002B038FEF0E94530A1F82DF91CF910895F2
:101540001F93CF93DF93EC0188E592E00E946B0A32
:10155000182F882361F08DEF0E94530ACE010E945C
:101560008E0A1886812FDF91CF911F9108958FE108
:101570008E83CE010E948E0AF5CF0F931F93CF93D7
:10158000DF938C01862FEA010E94530AFE018191AC
:101590008EBDDE5FEC17FD0741F081910000000079
:1015A0000DB407FEFDCF8EBDF5CF0DB407FEFDCF08
:1015B0008FEF0E94530A8FEF0E94530A0E94680A1D
:1015C000F80181878F71853059F081E28683C801E7
:1015D0000E948E0A80E0DF91CF911F910F910895B4
:1015E00081E0F9CFDF92EF92FF920F931F93CF9399
:1015F000DF93EC01162F022FF32EE42ED52E0E943E
:10160000530E8823C1F18F81811103C0CE010E9446
:101610005A0A111128C0812F80640E94530A8D2D0F
:101620000E94530A8E2D0E94530A8F2D0E94530A46
:10163000802F0E94530A87E8111101C085E90E949A
:10164000530A0E94680A1AE00E94680A898787FF85
:1016500002C01150C9F7DF91CF911F910F91FF90F8
:10166000EF90DF9008951C30B1F28CE291E00E947F
:101670006B0A8111D0CF8FEFEECF8F929F92AF92F6
:10168000BF92CF92DF92EF92FF920F931F93CF936F
:10169000DF93EC014A015B0169018885823049F4DE
:1016A0008B859C85AD85BE8588159905AA05BB05EA
:1016B00059F18A85A5019401833039F089E0220F20
:1016C000331F441F551F8A95D1F769E1CE010E944F
:1016D000F20A882399F08EE08E83CE010E948E0A52
:1016E00080E0DF91CF911F910F91FF90EF90DF90FD
:1016F000CF90BF90AF909F908F90089582E08887A1
:101700008B869C86AD86BE86F12CE12CE016F10618
:10171000A9F088E592E00E946B0A811102C085E27F
:10172000DBCFA6016CEFCE010E94BD0A8823A9F28F
:101730008FEFE81AF80A8EEFD81AE8CF8B859C85D0
:10174000AD85BE858E0D9F1DA11DB11D8B879C870C
:10175000AD87BE878F858111C4CFCE01DF91CF9138
:101760001F910F91FF90EF90DF90CF90BF90AF90BF
:101770009F908F900C94A00AEF92FF920F931F936B
:10178000CF93DF93EC0179011F85112369F001E00C
:1017900010E00E943D0B182F812FDF91CF911F91F8
:1017A0000F91FF90EF9008958A85833039F089E09A
:1017B000440F551F661F771F8A95D1F79A01AB0119
:1017C00068E1CE010E94F20A882331F08DE08E8319
:1017D000CE010E948E0AE0CFA7016EEFCE010E94DB
:1017E000BD0A8823A9F388E592E00E946B0A082FBE
:1017F00084E2002361F320E030E0A9016DE0CE0136
:101800000E94F20A882311F08AE0E1CF0E94680A60
:101810008111FACFCE010E948E0A102FBDCFEF9218
:10182000FF921F93CF93DF93FC01208111E020FFF3
:1018300012C0EC017C01FBE0EF0EF11C4B815C81DE
:101840006D817E81970189819A810E94BC0B182F3E
:10185000811108C010E0812FDF91CF911F91FF907F
:10186000EF900895888181FD04C088818E7F8883F0
:10187000F2CF4B815C816D817E818F819885A985B6
:10188000BA85480F591F6A1F7B1F970189819A816A
:101890000E94BC0B8111E9CFDDCFCF93DF93EC0128
:1018A000188620E030E0A9016CE00E94F20A88234B
:1018B00049F089E08E83CE010E948E0A80E0DF919C
:1018C000CF910895CE010E948E0A81E0F8CF8F92C9
:1018D0009F92AF92BF92CF92DF92EF92FF920F93BF
:1018E0001F93CF93DF931F921F92CDB7DEB77C017A
:1018F0004A015B016901FC018085813049F48385DF
:101900009485A585B68588159905AA05BB0581F13D
:10191000F7018285A5019401833039F089E0220F17
:10192000331F441F551F8A95D1F762E1C7010E94FA
:10193000F20A8823B1F08CE0F7018683C7010E9488
:101940008E0A80E00F900F90DF91CF911F910F9141
:10195000FF90EF90DF90CF90BF90AF909F908F90CF
:10196000089581E0F701808783869486A586B686F0
:10197000F1E0CF1AFEEFDF0AB12CA12C99249A9442
:10198000A016B10609F43AC00E94C304645D7E4FFC
:101990007A8369830E94680AF70181878F3F41F447
:1019A000CE0101960E94430A8823A1F38EE1C4CFA1
:1019B0008E3F11F089E1C0CF9EBCF601EF5FF14090
:1019C000CE16DF0649F0000000000DB407FEFDCF83
:1019D0008EB59EBC8193F4CF0DB407FEFDCF8EB5BE
:1019E000F6018083F70111860E94680A0E94680A46
:1019F000FFEFAF1ABF0A8EEFD81AC2CFF701838567
:101A00009485A585B6858A0D9B1DA11DB11D838773
:101A10009487A587B6878785811194CFC7010E94D7
:101A20004D0C90CF8F929F92AF92BF92FF920F93E7
:101A30001F93CF93DF93DC011196ED91FC91EF2B77
:101A400061F490E080E0DF91CF911F910F91FF90C2
:101A5000BF90AF909F908F900895F22E4A015B0146
:101A6000EC018B819C81AD81BE8188159905AA0509
:101A7000BB0561F0CE010E940F0C882311F3F2FE2A
:101A80000DC018828B829C82AD82BE822F2D237066
:101A9000F880F22AF882CE010B96D5CF01E010E053
:101AA0009E01255F3F4FB501A40189819A810E9463
:101AB000670C8111E6CFC5CF2F923F924F925F9274
:101AC0006F927F928F929F92AF92BF92CF92DF924E
:101AD000EF92FF921F93CF93DF9300D000D000D0FE
:101AE0001F92CDB7DEB79A87898749835A836B8364
:101AF0007C836A017B0122E0C21AD108E108F10867
:101B0000452B462B472B41F4E985FA85E55FFD4FD0
:101B1000C080D180E280F38089859A85855E9D4F63
:101B200098878F83FC0180819181A281B381C8163F
:101B3000D906EA06FB0618F0C12CD12C7601D70194
:101B4000C60143E0B695A795979587954A95D1F735
:101B50001C01F1E03F2211E0C6018770992701C006
:101B6000110F8A95EAF726013701460157012985A9
:101B70003A85295E3D4F3E832D83ED81FE81808134
:101B80009181A281B381B501A4013CE0769567956E
:101B9000579547953A95D1F7480F591F6A1F7B1FF4
:101BA00020E089859A850E94120D009709F472C081
:101BB000FC01E20DF31D2081FFEF8F1A9F0AAF0A8F
:101BC000BF0A322F3123D1F5B501A40144195509BB
:101BD00066097709413051056105710589F58981EB
:101BE0009A81AB81BC81892B8A2B8B2B49F4A985E7
:101BF000BA85A55FBD4FFD0140825182628273822A
:101C0000C301B2016E5F7F4F8F4F9F4F2A960FB671
:101C1000F894DEBF0FBECDBFDF91CF911F91FF9033
:101C2000EF90DF90CF90BF90AF909F908F907F907C
:101C30006F905F904F903F902F9008952401350151
:101C4000C814D904EA04FB0449F1AF81B8854D9169
:101C50005D916D917C9184169506A606B70680F479
:101C6000110F09F0A9CF91012F5F3F4F312C212C8B
:101C700011E02115B2E03B0708F07FCF190198CFA2
:101C8000212C22E0322E412C512C3201812C912C1E
:101C90005401E9CF60E070E0CB01B8CF61E070E0C3
:101CA00080E090E0B3CFFC012085223011F40C9449
:101CB000A00A213011F40C944D0C81E008958F920C
:101CC0009F92AF92BF92CF92DF92EF92FF920F93CB
:101CD0001F93423051056105710560F480E01F914A
:101CE0000F91FF90EF90DF90CF90BF90AF909F90BB
:101CF0008F900895FC01C08CD18CE28CF38CC416BB
:101D0000D506E606F70650F3480159016A018581B8
:101D1000803229F584899589A689B78917E0769557
:101D20006795579547951A95D1F7480F591F6A1F20
:101D30007B1F23E0CF0180960E94120D009771F265
:101D4000CC0CDD1CCC0CDD1CF1E0DF228C0D9D1DCC
:101D5000FC0180829182A282B38281E0C0CF803177
:101D600009F0BCCF44895589668977894D0D511D8D
:101D7000611D711D23E0CF0180960E94120D009716
:101D800009F4ACCFCC0CDD1CF1E0DF22C80ED91E6B
:101D9000F60111830083E1CFCF92DF92EF92FF92A1
:101DA0000F931F93CF93DF93423051056105710567
:101DB00050F48FEFDF91CF911F910F91FF90EF9033
:101DC000DF90CF900895FC01C08CD18CE28CF38C15
:101DD000C416D506E606F70660F389016A01EC0130
:101DE0008581803299F584899589A689B789E7E04C
:101DF0007695679557954795EA95D1F7480F591FFE
:101E00006A1F7B1F22E0CE0180960E94120D009770
:101E100081F2CC0CDD1CCC0CDD1CF1E0DF228C0D42
:101E20009D1DFC0180819181A281B381488D598DD6
:101E30006A8D7B8D481759076A077B0730F1F801D7
:101E400080839183A283B38381E0B4CF803109F092
:101E5000B0CF44895589668977894D0D511D611D23
:101E6000711D22E0CF0180960E94120D009709F4A7
:101E7000A0CFCC0CDD1CF1E0DF22C80ED91EF6018C
:101E800080819181B0E0A0E0D1CF80E093CF0F932B
:101E90001F93CF93DF93EC018A8187FF3EC04C896B
:101EA0005D896E897F898E819F8121E080960E9465
:101EB000120D009749F489818160898380E0DF9168
:101EC000CF911F910F910895EC81FD81EF70FF2755
:101ED00025E0EE0FFF1F2A95E1F7E80FF91F309775
:101EE00051F38081853E39F38881877383878881A8
:101EF00083FF08C0888D998DAA8DBB8D848F958FA7
:101F0000A68FB78F8C8D9D8DAE8DBF8D938F828F59
:101F1000B58BA48B8A818F778A830E811F81C8013C
:101F200080960E940F0C882331F2F8018081918104
:101F30000E94530E882309F4BECFC1CF4F925F9207
:101F40006F927F928F929F92AF92BF92CF92DF92C9
:101F5000EF92FF920F931F93CF93DF93EC014A010F
:101F60005B014C845D846E847F842881222309F484
:101F70005CC0488959896A897B89481559056A0571
:101F80007B0581F081149104A104B10469F41C86DD
:101F90001D861E861F86888A998AAA8ABB8A8A819C
:101FA0008F7D8A8381E046C023FF2CC0888D998D68
:101FB000AA8DBB8D88159905AA05BB05B0F1EE81E8
:101FC000FF813481375F7501640181E0C81AD1084F
:101FD000E108F108032E04C0F694E794D794C7945F
:101FE0000A94D2F78A8186FF36C08C8D9D8DAE8D86
:101FF000BF8D8C0D9D1DAE1DBF1D8C879D87AE872F
:10200000BF87C9CF26FFDBCFEE81FF818681978115
:1020100025E0880F991F2A95E1F7B0E0A0E0881528
:102020009905AA05BB0508F0B6CF4C865D866E867D
:102030007F8680E0DF91CF911F910F91FF90EF900D
:10204000DF90CF90BF90AF909F908F907F906F90D8
:102050005F904F900895DB01CA010197A109B10972
:1020600004C0B695A795979587953A95D2F7C81667
:10207000D906EA06FB0620F0452B462B472B49F5EF
:1020800027FF22C0848D958DA68DB78D8C879D8767
:10209000AE87BF878E01045F1F4FC114D104E104D6
:1020A000F10409F478CF4C855D856E857F859801B4
:1020B0008E819F810E94CC0E91E0C91AD108E1085F
:1020C000F108181654F3B1CF8C8D9D8DAE8DBF8D58
:1020D000DDCFC81AD90AEA0AFB0ADCCFCF93DF9317
:1020E000EC018881882341F0CE010E94470F1882BD
:1020F0001A82DF91CF91089581E0F9CF3F924F92FC
:102100005F926F927F928F929F92AF92BF92CF9287
:10211000DF92EF92FF920F931F93CF93DF9300D044
:102120001F92CDB7DEB75C01FC0144845584668400
:10213000778486809780F401C084D184E284F3841C
:10214000C414D504E604F704C0F47301620110E07E
:10215000FFEFCF1ADF0AEF0AFF0AF401808D918D9D
:10216000A28DB38D8C159D05AE05BF0540F41111F0
:1021700032C0C084D184E284F38411E0E9CF4C14EE
:102180005D046E047F0439F19E012F5F3F4FB7015C
:10219000A601C4010E94CC0E87FD1DC08823C1F298
:1021A00089819A81AB81BC81892B8A2B8B2B81F60B
:1021B000112329F0F401C086D186E286F3860FEF61
:1021C0001FEF2FEF3FE0B701A601C4010E945F0E91
:1021D000382E811118C0312C832D0F900F900F9045
:1021E0000F90DF91CF911F910F91FF90EF90DF90B3
:1021F000CF90BF90AF909F908F907F906F905F90A7
:102200004F903F9008954114510461047104B9F452
:10221000F501C486D586E686F7868281411451048D
:1022200061047104B1F0FFEF4F1A5F0A6F0A7F0A71
:102230004C145D046E047F0479F08F7B0BC0970112
:102240008601B301A201C4010E945F0E8111E0CF9B
:10225000C2CF8064F5018283F50182818068828328
:10226000BBCF8F929F92AF92BF92CF92DF92EF92AD
:10227000FF920F931F93423051056105710560F481
:1022800080E01F910F91FF90EF90DF90CF90BF9073
:10229000AF909F908F900895FC01E55EFD4FC08048
:1022A000D180E280F380EFEFCE1ADE0AEE0AFE0A5A
:1022B000C416D506E606F70618F3480159016A0167
:1022C000FC01E15FFD4F37E076956795579547959F
:1022D0003A95D1F70081118122813381400F511F3E
:1022E000621F731F21E00E94120D009749F2CC0C6F
:1022F000DD1CCC0CDD1CF1E0DF22C80ED91EF6017E
:1023000080829182A282B38281E0BBCFCF92DF92A2
:10231000EF92FF920F931F93CF93DF93E901FC019C
:10232000E55EFD4F00811181228133810F5F1F4FD8
:102330002F4F3F4F041715072607370750F48FEF2D
:10234000DF91CF911F910F91FF90EF90DF90CF9091
:1023500008956A01FC01E15FFD4F37E076956795CE
:10236000579547953A95D1F70081118122813381A4
:10237000400F511F621F731F20E00E94120D009733
:10238000F1F2CC0CDD1CCC0CDD1C21E0D222C80EFD
:10239000D91EF60180819181A281B3818F3FFFEF29
:1023A0009F07AF07BF0731F088839983AA83BB8358
:1023B00081E0C6CF80E0C4CF0F931F93CF93DF930C
:1023C000EB01E42FDC01AD5DBD4F4D915D916D9151
:1023D0007C9113970C811D812E813F8140235123D5
:1023E0006223732329E076956795579547952A953B
:1023F000D1F7088119812A813B81025011092109F5
:1024000031091B96FC9104C0000F111F221F331FBE
:10241000FA95D2F7400F511F621F731F57970D9106
:102420001D912D913C91400F511F621F731F2E2F44
:102430000E94120D009729F02C813D813170820F8E
:10244000931FDF91CF911F910F9108954F925F924B
:102450006F927F928F929F92AF92BF92CF92DF92B4
:10246000EF920F931F93CF93DF936C0148015901B3
:10247000DB01CA010297A109B109AC01BD01480DF8
:10248000591D6A1D7B1DF601E55EFD4F008111811E
:1024900022813381041715072607370708F47FC008
:1024A00070974080518062807380EE2009F46CC088
:1024B000481659066A067B0688F0441655066606D5
:1024C000770660F4401751076207730718F040E081
:1024D00050E0BA0140835183628373839C0127706B
:1024E000332711E001C0110F2A95EAF72C013D01B5
:1024F0002CE076946794579447942A95D1F7F60187
:10250000E95EFD4F4081518162817381440D551D0B
:10251000661D771D33E0B695A795979587953A95F3
:10252000D1F7EC01D1702A013B012FEF421A520A78
:10253000620A720A21E0C6010E94120D009779F129
:10254000FC01EC0FFD1FA12F2081422F4A2331E017
:1025500009F430E03E1519F12A272083B1E08B1AE7
:102560009108A108B10861F1AA0F71F73196B30182
:10257000A201D0E0C0E011E0A1E09F01281B390BCF
:102580002115324009F7CFCF84159505A605B7056B
:1025900008F0A4CF80839183A283B3839FCF80E090
:1025A000DF91CF911F910F91EF90DF90CF90BF906F
:1025B000AF909F908F907F906F905F904F90089515
:1025C00081E0EECF4F925F926F927F928F929F92B7
:1025D000AF92BF92EF92FF920F931F93CF93DF932F
:1025E000EC0188A199A1488D598D6A8D7B8D41158B
:1025F000510561057105F9F04F5F5F4F6F4F7F4FD8
:102600000E945C0D4B015C0122E082169104A10442
:10261000B104A8F4F12C8F2DDF91CF911F910F9170
:10262000FF90EF90BF90AF909F908F907F906F90B2
:102630005F904F90089540E050E0BA01E1CFEE2462
:10264000E39401E010E020E030E0BC01A40188A1A7
:1026500099A10E942612F82E8823E1F2488D598D07
:102660006A8D7B8D8EA5411551056105710539F483
:1026700080648EA7888E998EAA8EBB8ECCCF86FF63
:102680002AC04F5F5F4F6F4F7F4F481559056A054E
:102690007B0581F38F7B8EA74C8D5D8D6E8D7F8D3D
:1026A00088A199A1488C598C6A8C7B8C441555055E
:1026B0006605770580F42A013B012FEF421A520A82
:1026C000620A720A930182010E943111B301A201D0
:1026D0008111E6CF9FCF0FEF1FEF9801B501A40145
:1026E00088A199A10E943111882309F493CF488DC4
:1026F000598D6A8D7B8D411551056105710509F470
:10270000B9CF9501840188A199A10E94311181114D
:10271000B1CF80CFCF93DF93EC010E940F0C8823C1
:1027200041F0C55DDD4F88819981DF91CF910C9497
:10273000530E80E0DF91CF9108952F923F924F92F8
:102740005F926F927F928F929F92AF92BF92CF9241
:10275000DF92EF92FF920F931F93CF93DF93CDB74A
:10276000DEB762970FB6F894DEBF0FBECDBF988B71
:102770008F874801222E3D834E83352E2B01DC01AD
:1027800058962D913D914D915C915B972B873C879D
:102790004D875E879C96BC91BF83BB2309F4E3C041
:1027A000FC01F081F887DC011196BC91B987FC012E
:1027B000F281FA87DC0113966C90139714967C9043
:1027C00014971596BC91FC01F681F98BFC01F781F9
:1027D000FA8B288539854A85562D672D7B2F898967
:1027E0009F2F5801C22CDD80EE80F32C82010E94C5
:1027F000CE4FF1F09401422D5D2D6E2D732DC2014F
:10280000A0E00E94D74FB1F4AF85B88958961D92C9
:102810001D921D921C925B97EF85F88980829182B0
:1028200022822D8123833E813483358246825782E2
:1028300081E0A4C0EF81E3FF10C0EF85F889208913
:102840003189428953896489758986899789DD80B0
:10285000EE800E94CE4F08F486C0EF85F889A0A0D4
:10286000B1A0C501825D9D4FFC011081175F9401ED
:10287000422D5D816E81732DC201AFEF0E94B94F71
:10288000012F0E94954F942F852FA901692F782F32
:1028900069017B01EF85F88986A586FF0DC0848DCF
:1028A000958DA68DB78D840F951FA61FB71F808F9E
:1028B000918FA28FB38FB0CF288539854A85562D49
:1028C000672D7B2F89899A89AFEF0E94B94F0E94AB
:1028D000954F29833A834B835C8329813A814B81CD
:1028E0005C81C216D306E406F50668F028853985B2
:1028F0004A85562D672D7B2F89899A89A0E00E94F1
:10290000D74F09F05BC0BF81B6FF51C0F501E15E52
:10291000FD4F80819181A281B381EF85F889808FFD
:10292000918FA28FB38F6F84788838E1630E711C0A
:10293000C114D104E104F10409F46ECFAF85B88964
:1029400058964D915D916D917C915B979301909616
:102950008D919C910E948611B1E0CB1AD108E108BB
:10296000F10818162CF38B859C85AD85BE85EF8507
:10297000F889808F918FA28FB38F80E062960FB617
:10298000F894DEBF0FBECDBFDF91CF911F910F91A5
:10299000FF90EF90DF90CF90BF90AF909F908F907F
:1029A0007F906F905F904F903F902F900895EF85AC
:1029B000F889848D958DA68DB78DAFCF29813A8109
:1029C0004B815C81C21AD30AE40AF50AACCF9F920C
:1029D000AF92BF92CF92DF92EF92FF920F931F932D
:1029E000CF93DF9300D000D000D0CDB7DEB78C01FD
:1029F000942E89E0F801B296DE01119601900D92B5
:102A00008A95E1F7F801A0A0B1A0F0E26F9FC001A4
:102A10001124B0E0A0E04D815E816F817885F501E1
:102A2000ED5DFD4FC080D180E280F380C422D522CD
:102A3000E622F722C80ED91EEA1EFB1E840F951F40
:102A4000A61FB71F8D839E83AF83B8873B96808177
:102A5000875F04C0F694E794D794C7948A95D2F719
:102A6000C114D104E104F10489F149815A816B81D7
:102A70007C818985882371F04F5F5F4F6F4F7F4F57
:102A800049835A836B837C8321E0C21AD108E10811
:102A9000F108E6CF9E012F5F3F4FC5010E948611CE
:102AA000813091F390E080E029960FB6F894DEBF74
:102AB0000FBECDBFDF91CF911F910F91FF90EF908F
:102AC000DF90CF90BF90AF909F900895492DBE01A9
:102AD0006F5F7F4FF80180A191A10E94DC11E4CFCC
:102AE000FF920F931F93CF93DF93FC0124A5211135
:102AF00007C081E0DF91CF911F910F91FF90089562
:102B0000EC0186A587FF8AC08F7786A7F12C10E09D
:102B100000E08BA58F1508F469C040E06F2DCE0151
:102B20000E94E714FC01892B09F473C08081803C6A
:102B300061F1813C69F0853809F06BC08CA5877321
:102B400090E095838483A8A1B9A18C9181608C9336
:102B5000408190E080E000FB1795079517F9DF01B1
:102B6000A80FB91F2C91020F111D8130910521F47E
:102B700023E030E0453811F021E030E0820F931F70
:102B80008032910540F3F394C4CF81819EA596FFD6
:102B90002BC082608183788969895A894B893C89F5
:102BA0002D899E898F8970876187528743873487F3
:102BB0002587968787878C8D9D8DAE8DBF8D848B65
:102BC000958BA68BB78B788569855A854B853C8517
:102BD0002D859E858F85708F618F528F438F348FA7
:102BE000258F968F878FAFCF8D7FD4CF41E0BE01E9
:102BF0006E5D7F4F88A199A10E94DC11009749F07A
:102C0000FC011383028388A199A10E948A13811178
:102C100070CF8DA581608DA780E06CCF80A191A140
:102C20000E948A13811165CF9DA591609DA762CFF7
:102C30000F931F93CF93DF93EC0188A999A9009775
:102C400059F00E946E1019AA18AA1BAA1AAADF919D
:102C5000CF911F910F9108950AA91BA981E0011539
:102C6000110589F3C8010E947015F80114A616A673
:102C7000EACF982F803290F0877F823279F09A33B2
:102C800069F0892F8F7B8C3349F082EC890F823079
:102C900028F081E09C3519F080E0089581E00895E6
:102CA000AF92BF92CF92DF92EF92FF920F931F935A
:102CB000CF93DF93EC016A017B0159018B819C81E9
:102CC000AD81BE818C159D05AE05BF0590F49501C3
:102CD000B701A60189819A810E94670CDF91CF918B
:102CE0001F910F91FF90EF90DF90CF90BF90AF902A
:102CF0000895400F511F611D711D84179507A60788
:102D0000B70728F7CE010E940F0C8111E0CFE6CF64
:102D1000AF92BF92CF92DF92EF92FF920F931F93E9
:102D2000DC01DC96ED91FC91DD97309731F18081EB
:102D300040E050E0BA0183FF0CC0408D518D628DA0
:102D4000738D80899189A289B389481B590B6A0BBD
:102D50007B0B4115B0E85B076105710520F04FEF73
:102D60005FE760E070E0CA011F910F91FF90EF9064
:102D7000DF90CF90BF90AF900895DE96ED91FC91DB
:102D800080E090E0309781F384A583FF23C0208901
:102D90003189428953896489758986899789A08098
:102DA000B180C280D380E480F580068117810E94C3
:102DB000C54FF22FE32F2F3F3F47410551056105D6
:102DC00071058105910519F010F0FFEFEFE78F2FE6
:102DD0009E2FCACF20E030E040E050E060E070E09D
:102DE00080E090E0E6CFDC01DC96ED91FC9130973D
:102DF00031F08081882351F0CF010C94470FFC0102
:102E000086AD97AD009711F00C9470150895CF938F
:102E100080915404882309F436C1809107028111FE
:102E200032C180915104882309F457C18091CC03A9
:102E30009091CD03A091CE03B091CF030196A11D37
:102E4000B11D8093CC039093CD03A093CE03B09398
:102E5000CF0380919A1E813009F092C080911A1C94
:102E600090911B1C019709F08BC08091CC0390912D
:102E7000CD03A091CE03B091CF030F97A105B1056B
:102E800008F47EC08091CB0381117AC06091C703A2
:102E90007091C8038091C9039091CA0320E030E08B
:102EA00040E85FE30E94E44F6093C7037093C80358
:102EB0008093C9039093CA031092CC031092CD0360
:102EC0001092CE031092CF038091020260919D1E5A
:102ED000882309F4DAC08091DE1B9091DF1B0E94E9
:102EE0002B038091DC1B9091DD1B61E00E942B0382
:102EF00080910202C1E08C27809302028091E01B46
:102F00009091E11B0E9402039093C6038093C50336
:102F10002091A11E8091C5039091C6032817190620
:102F200079F18091C3039091C40301969093C403F7
:102F30008093C303C093CB03C09352041092CC037D
:102F40001092CD031092CE031092CF038091C7034D
:102F50009091C803A091C903B091CA0380934C0417
:102F600090934D04A0934E04B0934F0480919D1E06
:102F7000811197C081E090E090932D1E80932C1ECC
:102F800080919A1E813009F07EC080911A1C909128
:102F90001B1C019709F077C08091CC039091CD0361
:102FA000A091CE03B091CF030F97A105B10508F40E
:102FB0006AC08091CB03882309F465C080915104D5
:102FC000882309F460C06091C7037091C8038091A1
:102FD000C9039091CA0320E030E040E85FE30E941B
:102FE000E34F6093C7037093C8038093C903909322
:102FF000CA031092CC031092CD031092CE0310920C
:10300000CF038091020260912C1E70912D1E8823A7
:1030100009F44CC08091DE1B9091DF1B0E942B03B2
:103020008091DC1B9091DD1B61E00E942B0380915D
:103030000202C1E08C27809302026091C703709165
:10304000C8038091C9039091CA0320E030E0A90130
:103050000E94D04D811117C01092CB031092C7036C
:103060001092C8031092C9031092CA032091C3039F
:103070003091C4038091E2039091E303281739074C
:103080000CF5C0935304CF9108958091DE1B90916D
:10309000DF1B0E942B038091DC1B9091DD1B60E005
:1030A00025CF10922D1E10922C1E6ACF8091DE1B10
:1030B0009091DF1B0E942B038091DC1B9091DD1B04
:1030C00060E0B3CFC093500410925404C0935204F4
:1030D0001092C4031092C303D6CF8091CC03909179
:1030E000CD03A091CE03B091CF030196A11DB11DD8
:1030F0008093CC039093CD03A093CE03B093CF03E2
:103100008091221C8111BFCF8091981E8130D9F40B
:103110008091161C9091171C0197A9F48091CC0303
:103120009091CD03A091CE03B091CF030F97A1054D
:10313000B10548F08091C203811105C08091C1039F
:10314000882309F447C18091161C9091171C892B84
:1031500009F4AAC18091C103882309F453C0809166
:10316000CC039091CD03A091CE03B091CF030F97E4
:10317000A105B10558F11092CC031092CD03109225
:10318000CE031092CF038091020260919B1E882390
:1031900009F48EC18091CE1B9091CF1B0E942B030E
:1031A0008091CC1B9091CD1B61E00E942B038091FC
:1031B000020291E08927809302028091BD039091E1
:1031C000BE0301969093BE038093BD0320911C1C07
:1031D00030911D1C8091BD039091BE03821793070F
:1031E00088F01092C10381E08093C2031092BE0365
:1031F0001092BD031092CC031092CD031092CE0317
:103200001092CF038091991E8130F1F48091181CA7
:103210009091191C0197C1F48091CC039091CD033A
:10322000A091CE03B091CF030F97A105B10560F037
:103230008091BC03811108C08091BB03811104C03F
:103240008091C203811140C18091181C9091191C7A
:10325000892B09F4A3C18091BB03882309F453C0CF
:103260008091CC039091CD03A091CE03B091CF0378
:103270000F97A105B10558F11092CC031092CD0320
:103280001092CE031092CF038091020260919C1E97
:10329000882309F487C18091D61B9091D71B0E9487
:1032A0002B038091D41B9091D51B61E00E942B03CE
:1032B0008091020291E08927809302028091BD03F0
:1032C0009091BE0301969093BE038093BD0320911D
:1032D0001E1C30911F1C8091BD039091BE0382176C
:1032E000930788F01092BB0381E08093BC03109297
:1032F000BE031092BD031092CC031092CD03109226
:10330000CE031092CF0380919A1E8130E1F5809117
:103310001A1C90911B1C0197B1F58091CC039091E0
:10332000CD03A091CE03B091CF030F97A105B105B6
:1033300050F18091C203882331F18091BC0388232E
:1033400011F11092CC031092CD031092CE03109283
:10335000CF038091020260919D1E882309F42EC143
:103360008091DE1B9091DF1B0E942B038091DC1B60
:103370009091DD1B61E00E942B038091020291E09D
:103380008927809302028091E01B9091E11B0E94AB
:1033900002039093C6038093C5032091A11E8091E0
:1033A000C5039091C6032817190609F46CCE61E095
:1033B0008DE00E942B0381E08093520410924B0415
:1033C0008091A11E90E09093C6038093C503109254
:1033D000540459CE1092CC031092CD031092CE0318
:1033E0001092CF038091020260919B1E882309F402
:1033F00043C08091CE1B9091CF1B0E942B038091E4
:10340000CC1B9091CD1B61E00E942B0380910202A6
:10341000C1E08C27809302028091D01B9091D11B38
:103420000E9402039093C0038093BF0320919E1ECD
:103430008091BF039091C0032817190609F48ACE22
:1034400080919E1E90E09093C0038093BF03C09331
:10345000C1031092BE031092BD0380911C1C909179
:103460001D1C18161906A4F490919B1E81E0911161
:1034700080E080939B1E6ECE8091CE1B9091CF1BDF
:103480000E942B038091CC1B9091CD1B60E0BCCFA0
:1034900080911C1C90911D1C919581959109909390
:1034A0001D1C80931C1C56CE81E08093C20352CE1B
:1034B0008091CE1B9091CF1B0E942B038091CC1B3F
:1034C0009091CD1B60E071CE1092CC031092CD0391
:1034D0001092CE031092CF038091020260919C1E45
:1034E000882309F443C08091D61B9091D71B0E947A
:1034F0002B038091D41B9091D51B61E00E942B037C
:1035000080910202C1E08C27809302028091D81B37
:103510009091D91B0E9402039093BA038093B90340
:1035200020919F1E8091B9039091BA032817190624
:1035300009F491CE80919F1E90E09093BA038093FE
:10354000B903C093BB031092BE031092BD038091D8
:103550001E1C90911F1C18161906A4F490919C1E15
:1035600081E0911180E080939C1E75CE8091D61BE6
:103570009091D71B0E942B038091D41B9091D51B57
:1035800060E0BCCF80911E1C90911F1C919581958D
:10359000910990931F1C80931E1C5DCE81E0809347
:1035A000BC0359CE8091D61B9091D71B0E942B0350
:1035B0008091D41B9091D51B60E078CE8091DE1B6A
:1035C0009091DF1B0E942B038091DC1B9091DD1BEF
:1035D00060E00E942B036091C7037091C803809143
:1035E000C9039091CA0320E030E040E85FE30E9405
:1035F000E44F6093C7037093C8038093C90390930B
:10360000CA03BBCE8F929F92AF92BF92CF92DF92AE
:10361000EF92FF92CF93C12CD12C83E7E82E83EC5D
:10362000F82E0E94C3046093B5037093B603809391
:10363000B7039093B8038091B5039091B603A0911E
:10364000B703B091B8034091B1035091B2036091B8
:10365000B3037091B403841B950BA60BB70B883E84
:103660009340A105B10508F452C08091B503909133
:10367000B603A091B703B091B8038093B1039093C0
:10368000B203A093B303B093B4038091C71B882304
:1036900021F080914B048823D1F182E39EE10E94C6
:1036A00058066093301C7093311C8093321C9093A9
:1036B000331C8EE29EE10E9458066093341C709386
:1036C000351C8093361C9093371CC0922C1CD092D2
:1036D0002D1CE0922E1CF0922F1C8091A60390913D
:1036E000A7039093391C8093381C8091A403909178
:1036F000A50390933B1C80933A1C8091A203909168
:10370000A30390933D1C80933C1C0E94FC04809179
:10371000B003811199C180918F1E813009F015C1CC
:103720004091B5035091B6036091B7037091B8030F
:103730008090AC039090AD03A090AE03B090AF0327
:1037400080917A1E90917B1E481959096A097B095C
:10375000B0E0A0E0481759076A077B0708F46BC080
:103760008091B5039091B603A091B703B091B803CF
:103770008093AC039093AD03A093AE03B093AF03DB
:103780008EE29EE10E9458064B015C018092741DFE
:103790009092751DA092761DB092771D20E030E0CA
:1037A00040EA50E40E94D04D87FD0AC020E030E09E
:1037B00040EA52E4C501B4010E94F1501816A4F485
:1037C000C0918D1EC13081F48091F81B9091F91B3E
:1037D00060E00E942B038091F21B9091F31B60E04C
:1037E0000E942B03C093221C6091761E7091771E5D
:1037F00090E080E00E94D54D2091741D3091751DA0
:103800004091761D5091771D0E94F15087FD04C0B4
:1038100080918D1E813041F08091F81B9091F91BB1
:1038200060E00E942B0302C18091F81B9091F91B6C
:1038300061E00E942B0380918E1E813009F05BC1F4
:103840004091B5035091B6036091B7037091B803EE
:103850008090A8039090A903A090AA03B090AB0316
:103860008091781E9091791E481959096A097B093F
:10387000B0E0A0E0481759076A077B0708F4E4C0E6
:103880008091B5039091B603A091B703B091B803AE
:103890008093A8039093A903A093AA03B093AB03CA
:1038A00082E39EE10E9458064B015C018092C81D94
:1038B0009092C91DA092CA1DB092CB1D20E030E0AD
:1038C00040EA50E40E94D04D87FD0AC020E030E07D
:1038D0004AE753E4C501B4010E94F1501816A4F45C
:1038E000C0918C1EC13081F48091F81B9091F91B1E
:1038F00060E00E942B038091F81B9091F91B60E01F
:103900000E942B03C093221C6091741E7091751E3F
:1039100090E080E00E94D54D2091C81D3091C91DD6
:103920004091CA1D5091CB1D0E94F15087FD05C0EA
:1039300080918C1E813009F47CC08091F21B9091A3
:10394000F31B60E00E942B0358C180918F1E8111F0
:1039500072CF4091B5035091B6036091B703709157
:10396000B8038090AC039090AD03A090AE03B090EC
:10397000AF0380917A1E90917B1E481959096A09FC
:103980007B09B0E0A0E0481759076A077B0720F0E1
:1039900080918D1E813029F080918D1E81114BCF39
:1039A0003BCF8091B5039091B603A091B703B0913E
:1039B000B8038093AC039093AD03A093AE03B09390
:1039C000AF038EE29EE10E9458066093741D7093CF
:1039D000751D8093761D9093771D88E79DE10E9469
:1039E000DB08A090F81BB090F91B6091701D7091DE
:1039F000711D8091721D9091731D0E94C2508A2D7D
:103A00000E942B036091761E7091771E90E080E0FB
:103A10000E94D54D2091741D3091751D4091761DE9
:103A20005091771D0E94D04D87FF05CF1092040260
:103A300002CF80910402811158C08091F21B9091B5
:103A4000F31B61E00E942B0383E20E940203892B97
:103A500099F480910302882321F08091881E81309F
:103A600041F080910402882339F08091891E8130D1
:103A700019F481E08093221C80910302882321F0B5
:103A80008091881E813041F080910402882349F0A2
:103A90008091891E813029F48091221C882309F4A9
:103AA000C0CD8091221C882371F08091F21B9091EF
:103AB000F31B60E00E942B038091F81B9091F91B8F
:103AC00060E00E942B038091E903882321F010928B
:103AD0004B041092E903CF91FF90EF90DF90CF90CD
:103AE000BF90AF909F908F9008958091F21B90911E
:103AF000F31B60E0A7CF80918E1E8111A5CF40916E
:103B0000B5035091B6036091B7037091B8038090EC
:103B1000A8039090A903A090AA03B090AB03809152
:103B2000781E9091791E481959096A097B09B0E0FD
:103B3000A0E0481759076A077B0720F080918C1E88
:103B4000813091F080918C1E81117ECF8091040292
:103B5000811105C080918D1E813009F4EECE8091D7
:103B60008D1E811171CFE9CE8091B5039091B6037E
:103B7000A091B703B091B8038093A8039093A903D1
:103B8000A093AA03B093AB0380910402811138C0C3
:103B900082E39EE10E9458066093C81D7093C91D80
:103BA0008093CA1D9093CB1D8CEC9DE10E94DB0895
:103BB000A090F21BB090F31B6091C41D7091C51DC5
:103BC0008091C61D9091C71D0E94C2508A2D0E94EF
:103BD0002B036091741E7091751E90E080E00E942E
:103BE000D54D2091C81D3091C91D4091CA1D5091DD
:103BF000CB1D0E94D04D87FF27CF1092030224CF08
:103C00008091F21B9091F31B60E0E1CF8091701ED8
:103C1000811128C08091CA1B9091CB1B60E00E944B
:103C200059038091711E811123C08091D21B909104
:103C3000D31B60E00E9459038091721E81111EC047
:103C40008091DA1B9091DB1B60E00E945903809108
:103C5000731E811119C08091EA1B9091EB1B60E0EB
:103C60000C9459038091CA1B9091CB1B61E0D7CF74
:103C70008091D21B9091D31B61E0DCCF8091DA1B45
:103C80009091DB1B61E0E1CF8091EA1B9091EB1BEF
:103C900061E0E6CF8091480490914904883B9B40C5
:103CA00098F08091060221E082278093060280919D
:103CB000060290E0909347048093460410924904D2
:103CC0001092480420934A0408950E94C30460930C
:103CD0009E0370939F038093A0039093A103809110
:103CE0009E0390919F03A091A003B091A1034091E6
:103CF0009A0350919B0360919C0370919D03841BD8
:103D0000950BA60BB70B883C9105A105B105B0F149
:103D100080919E0390919F03A091A003B091A10375
:103D200080939A0390939B03A0939C03B0939D036D
:103D300080E090E0A3E7B3EC80932C1C90932D1CC3
:103D4000A0932E1CB0932F1C8091A6039091A703E3
:103D50009093391C8093381C8091A4039091A50303
:103D600090933B1C80933A1C8091A2039091A303F3
:103D700090933D1C80933C1C0C94FC040895EF929E
:103D8000FF920F931F93CF93DF938091E9038111EB
:103D900064C08091E803811160C08091060288238D
:103DA00049F0E0914804F0914904E25FFF4E8081C0
:103DB0008F3F91F18091060281114FC0E09148043C
:103DC000F0914904EA5AFB4F80818F3F09F045C0CA
:103DD000E0914804F0914904E25FFF4E80818091B8
:103DE0000502E0914804F0914904EA5AFB4F9081A2
:103DF00080910502981331C081E080934B04809339
:103E0000550481E090E0909347048093460410921B
:103E100099031092980321C0E0914804F09149045D
:103E2000E25FFF4E90818091050298130DC081E002
:103E300080934B04809355041092470410924604DB
:103E40001092990310929803E0914804F09149046C
:103E5000EA5AFB4F80818091050280914B048111C9
:103E6000A2C2F8948091980390919903019690933F
:103E700099038093980320910602409193035091F7
:103E8000940380919203C0918D03D0918E03909101
:103E90008C03A0918703B091880330918603E09052
:103EA0008103F09082032223C1F160914804709154
:103EB0004904625F7F4EFB012081609198037091FD
:103EC00099032617170649F5609148047091490433
:103ED000625F7F4EFB0120812223F9F0609148044C
:103EE000709149046F5F7F4F709349046093480459
:103EF0006091480470914904625F7F4EFB017081BC
:103F0000009196031091970360919503F801208129
:103F100070FD24C06095262322C020910602222332
:103F200009F419C1682F6095FA01208126232083A6
:103F3000909528819223988330959C9139233C93C6
:103F4000F7018081862380830E944A1E7894DF9146
:103F5000CF911F910F91FF90EF900895262BF801BC
:103F600020836091480470914904625F7F4EFB0199
:103F70006081FA01208161FFCAC0822B8083409159
:103F8000480450914904425F5F4EFA0160814091BC
:103F9000900350919103FA01208180918F0362FF79
:103FA000BAC0822B80834091480450914904425FFB
:103FB0005F4EFA012081888123FFB0C0982B98833F
:103FC000C0914804D0914904C25FDF4E2881C0915E
:103FD0008A03D0918B0398818091890324FFA1C02B
:103FE000892B8883C0914804D0914904C25FDF4E79
:103FF00088819C9185FF98C0892F832B8C93A091F9
:104000004804B0914904A25FBF4E2C91A091840353
:10401000B09185039C918091830326FF8AC0892BF0
:104020008C93A0914804B0914904A25FBF4E2C919B
:10403000F70190818091800327FF7EC0892B8083C8
:10404000809148049091490401969093490480938B
:1040500048041092990310929803E0914804F0915B
:104060004904E35FFF4E808181FF12C0E091480464
:10407000F0914904E35FFF4E808180FF60C0809132
:10408000A6039091A70301969093A7038093A6039C
:10409000E0914804F0914904E35FFF4E808183FF83
:1040A00012C0E0914804F0914904E35FFF4E808123
:1040B00082FF4BC08091A4039091A5030196909339
:1040C000A5038093A403E0914804F0914904E35FC1
:1040D000FF4E808185FF12C0E0914804F0914904B1
:1040E000E35FFF4E808184FF58C18091A2039091CD
:1040F000A30301969093A3038093A2031092D60387
:104100001092D7031092D8031092D9031DCF809537
:104110002823208334CF8095822344CF9095982301
:104120004ECF809589235DCF832F809598239C93D4
:1041300066CF8095892374CF8095892380CF809125
:10414000A6039091A70301979FCF8091A40390911C
:10415000A5030197B4CF60914804709149046A5A4D
:104160007B4FFB0120816091980370919903261782
:10417000170609F0D7CE60914804709149046A5A35
:104180007B4FFB012081222309F4CCCE60914804AF
:10419000709149046F5F7F4F7093490460934804A6
:1041A00060914804709149046A5A7B4FFB01708109
:1041B000009196031091970360919503F801208177
:1041C00070FFC4C0262B208360914804709149047D
:1041D0006A5A7B4FFB012081FA01608121FFB9C03F
:1041E000862B808340914804509149044A5A5B4F82
:1041F000FA016081409190035091910380918F0367
:10420000FA01208162FFAAC0822B8083409148047A
:10421000509149044A5A5B4FFA012081888123FF5B
:10422000A0C0982B9883C0914804D0914904CA5AE1
:10423000DB4F2881C0918A03D0918B038091890341
:10424000988124FF91C0892B8883C0914804D09124
:104250004904CA5ADB4F88819C9185FF88C0832F0F
:10426000892B8C93A0914804B0914904AA5ABB4F62
:104270002C91A0918403B0918503809183039C913C
:1042800026FF79C0892B8C93A0914804B0914904F2
:10429000AA5ABB4F2C9180918003F701908127FF90
:1042A0006DC0892B808380914804909149040196C8
:1042B00090934904809348041092990310929803B4
:1042C000E0914804F0914904EB5AFB4F808181FF53
:1042D00012C0E0914804F0914904EB5AFB4F8081F1
:1042E00080FF4FC08091A6039091A7030196909301
:1042F000A7038093A603E0914804F0914904EB5A88
:10430000FB4F808183FF12C0E0914804F091490483
:10431000EB5AFB4F808182FF3AC08091A4039091B9
:10432000A50301969093A5038093A403E09148040C
:10433000F0914904EB5AFB4F808185FFDFCEE0917D
:104340004804F0914904EB5AFB4FCCCE60952623EC
:104350003ACF282F20952623208344CF809582238F
:1043600054CF909598235ECF809589236DCF832F6E
:104370008095892376CF8095892385CF8095892361
:1043800091CF8091A6039091A7030197B0CF809120
:10439000A4039091A5030197C5CF8091A2039091AA
:1043A000A3030197A7CEDF91CF911F910F91FF90AB
:1043B000EF900C940717E6E3FEE181E082AF83AF54
:1043C00084AF85AF40E050E06DE773EC40932C1C68
:1043D00050932D1C60932E1C70932F1CE8ECFBE176
:1043E00016AA17AA10AE1092C71B1092990310922A
:1043F000980310924904109248041092DA03109224
:10440000DB031092DC031092DD031092DE031092A6
:10441000DF031092E0031092E1031092E403109284
:10442000E5031092E6031092E703809306021092D0
:104430004A041092221C109203021092040210925D
:10444000040310924B04109255041092D60310925C
:10445000D7031092D8031092D903089590E080E01A
:104460000895CF93DF93EC0160E08E810E942B03CF
:1044700061E08E810E942B0360E08E810E942B03FD
:104480008BE891E00197F1F7DF91CF910895CF92FA
:10449000DF92EF92FF920F931F93CF93DF936C0104
:1044A0007C0187E0E80EF11CD0E0C0E0062F10E0B0
:1044B000B8010C2E02C0759567950A94E2F76170F9
:1044C000F70181917F010E942B032196C430D10511
:1044D00079F7C601DF91CF911F910F91FF90EF9077
:1044E000DF90CF900C943122CF92DF92EF92FF9227
:1044F0000F931F93CF93DF93EC01F62E642F8C81E3
:104500000E942B038D818F3F19F060E00E942B03E6
:104510000F2D10E08F8584FF25C06E0187E0C80E47
:10452000D11CF12CE12CB8010E2C02C075956795B9
:104530000A94E2F76170F60181916F010E942B03EA
:10454000FFEFEF1AFF0A88E0E816F10461F7CE01E9
:10455000DF91CF911F910F91FF90EF90DF90CF905F
:104560000C943122B80184E0759567958A95E1F73E
:10457000CE010E9447226F2DCE01DF91CF911F9176
:104580000F91FF90EF90DF90CF900C94472240E086
:10459000682F84E19EE10C9474229091271E891764
:1045A00010F08FEF890FE82FF0E0EC5EF14E848978
:1045B00080680C94C72281E00E94C7228BE39FE1B0
:1045C0000197F1F70895CF93DF93613029F090912F
:1045D000231E98609093231E6093271E1092281E1E
:1045E00090E49093291E80932A1E805C80932B1E5A
:1045F00061E08091181E0E9459038091191E8F3F1F
:1046000019F061E00E94590361E080911A1E0E9436
:104610005903C4E1DEE19E0124513E418091231EF5
:1046200084FD0BC084E090E021962817390744F4FC
:1046300061E08E810E945903EECF88E090E0F4CFD4
:104640008BE39DE00197F1F760E08091181E0E94D6
:104650002B0360E080911A1E0E942B038091191E8B
:104660008F3F19F060E00E942B038091231E84FD90
:1046700034C063E084E19EE10E944722CBE4D6E4AB
:10468000CE010197F1F763E084E19EE10E944722A9
:104690002197F1F763E084E19EE10E94472283E5E0
:1046A00092E00197F1F762E084E19EE10E944722E7
:1046B0008091231E80620E94C72284E08093241E82
:1046C0008CE00E94C7220E94DB2282E08093251E9C
:1046D00086E0DF91CF910C94C72280620E94C722AE
:1046E0008BE496E40197F1F78091231E80620E948B
:1046F000C72283E592E00197F1F78091231E806243
:104700000E94C722D5CFE4E1FEE180898E7F808BB5
:1047100088600C94C722E4E1FEE18089982F9160C3
:10472000908B89600C94C72241E00E94742281E042
:1047300090E00895FC0101900020E9F73197AF0166
:10474000481B590BBC0184E19EE10C94CF04FC0191
:10475000808181110EC080E2DF011D928A95E9F708
:1047600077836683DB0115968C91803121F080324E
:1047700039F080E0089580E4808381E082830895A9
:1047800080E8FACF2F923F924F925F927F928F9262
:104790009F92AF92BF92CF92DF92EF92FF920F93D0
:1047A0001F93CF93DF93EC014B017A018A8180FF45
:1047B000D5C0888183FF16C0888D998DAA8DBB8D49
:1047C000488959896A897B89841B950BA60BB70B8D
:1047D000A70170E060E0481759076A077B07A0F05F
:1047E0007C0112C086FF10C0EE81FF818681978117
:1047F00055E0880F991F5A95E1F728893989821B5E
:10480000930B8E159F0560F36701712C1E018CE0E0
:10481000280E311C412C42E0542EC114D10409F45D
:10482000F3C0488959896A897B89EE81FF818A01B1
:1048300011702881DB01CA0139E0B695A7959795DB
:1048400087953A95D1F726FF30C0448D558D668DFA
:10485000778D480F591F6A1F7B1FEE81FF8101155D
:10486000110509F081C0C11482E0D80608F47CC0AB
:1048700083A194A1A5A1B6A1481759076A077B0790
:1048800009F472C0C11484E0D80608F094C001E0B5
:1048900010E0940181A192A10E94670C882309F481
:1048A0005DC0A12C82E0B82E75C0738078220115FE
:1048B000110581F471100EC0452B462B472B81F555
:1048C00027FF29C0848D958DA68DB78D8C879D87F8
:1048D000AE87BF87EE81FF814C855D856E857F85C4
:1048E0004250510961097109848104C0440F551F68
:1048F000661F771F8A95D2F780899189A289B3892B
:10490000840F951FA61FB71FAC01BD01470D511D98
:10491000611D711DA2CF8C8D9D8DAE8DBF8DD6CFAB
:104920004C855D856E857F8523FF0CC08A8186FF5F
:1049300009C04F5F5F4F6F4F7F4F4C875D876E871A
:104940007F87C8CF9101CF010E94CC0E87FD06C0A2
:104950008111C0CF8881807D09F056C08981826035
:1049600089838FEF9FEF53C0C201801B910B5601CB
:104970008C159D0508F45C0120E0CF0180960E9413
:10498000120D009759F3BC01600F711FA501C401FE
:104990000E9403518A0C9B1C88899989AA89BB892A
:1049A0008A0D9B1DA11DB11D888B998BAA8BBB8B7A
:1049B000CA18DB0832CF8601012F1127069530E097
:1049C00020E0888186FD0EC082818719990B092E0F
:1049D000000CAA0BBB0B80179107A207B30710F4BA
:1049E0008C019D01D901C80129E0880F991FAA1FD8
:1049F000BB1F2A95D1F75C019401CF0180960E94DC
:104A000050168111C7CFAACFC7018C199D09DF911C
:104A1000CF911F910F91FF90EF90DF90CF90BF90BB
:104A2000AF909F908F907F905F904F903F902F908E
:104A30000895EF92FF920F931F93CF93DF931F92EE
:104A4000CDB7DEB77C01962FF70140895189628985
:104A500073898A019B0185E03695279517950795FF
:104A60008A95D1F70F7011F091112BC041E050E001
:104A7000BE016F5F7F4FC7010E94C223813051F09A
:104A800090E080E00F90DF91CF911F910F91FF9008
:104A9000EF900895F70180899189A289B3894F9693
:104AA000A11DB11D808B918BA28BB38BF7018681E9
:104AB00097818B96F0E20F9F90011124820F931F34
:104AC000E1CF405E5F4F6F4F7F4F408B518B628BCA
:104AD000738BECCFCF93DF93EC01AB0170E060E020
:104AE00085E0440F551F661F771F8A95D1F7CE01C9
:104AF0000E949E0F882331F060E0CE01DF91CF91BC
:104B00000C94192590E080E0DF91CF9108952F92C9
:104B10003F924F925F926F927F928F929F92AF924D
:104B2000BF92CF92DF92EF92FF920F931F93CF939A
:104B3000DF93CDB7DEB7A4970FB6F894DEBF0FBEF4
:104B4000CDBF8C014B01FA01DB018C91807D11F40A
:104B500080E038C1D8018C918111FACF868197818C
:104B60000C966DE070E00E94634F6AA381858370AC
:104B7000EE24E3948111E60E5F0140E050E0BA01BB
:104B8000C4010E949E0F19A2712C612CF12CF50119
:104B90003A96FCA3EBA3D40150962D903D904D90F6
:104BA0005C90539760E0C4010E941925FC01892B99
:104BB00079F22081253E09F431C1222309F439C15B
:104BC0006E1408F44EC02E3209F431C155E05694EB
:104BD0004794379427945A95D1F7610133853F3034
:104BE00009F074C0F1103FC0B22FBF717B2E8AA1B3
:104BF0008B13D1CF26FFCFCF958599A3F82EB1E0A7
:104C00007B12C9CF80E2F401DE01119601900D9272
:104C10008A95E1F7F5018081918193838283552400
:104C20005394F51408F4B7CFB601CE0101960E9453
:104C30006A25009709F4FBC0D50114962D913C918B
:104C4000FC0160E06530B8F441815281D5011296D3
:104C50002D903C9022163306B1F4452B09F49BCFDE
:104C6000E6C0612CB0CF7A942711E1C08585A9A157
:104C70008A1729F2DCC06B3018F444815581E6CFE5
:104C800046815781E3CF4038510508F0D0C08FE905
:104C9000840F8A3108F44052C1010196D501139660
:104CA0009C938E931297D1018C919FE9980F9A3122
:104CB00008F480528413BBC06F5F32966D3009F0E8
:104CC000C1CF5394B1E0CB1AD108ABCF33FDAFC005
:104CD000FF2009F490C081E078123ACF9F01255F50
:104CE0003F4F90E090FB979597F98191980FE217CD
:104CF000F307C1F7A9A1A9132BCF80E2D8011D9218
:104D00008A95E9F7F40126813781D80117963C93FB
:104D10002E9316971596DC92CE921497448D558D4E
:104D2000668D778DF8014087518762877387F90117
:104D3000BB968FE0C822DD2445E0CC0CDD1C4A95F3
:104D4000E1F7EC0DFD1D838583FD64C087738C93B3
:104D50009385987111F488608C93D8011396FC9216
:104D6000139781E012968C93D90193964D915D91A2
:104D70006D917C919697D80154964D935D936D9368
:104D80007C93579784899589B0E0A0E0DC0199274E
:104D90008827428D538D70E060E0482B592B6A2B99
:104DA0007B2BD8015C964D935D936D937C935F97BD
:104DB000848D958DA68DB78DF801808F918FA28FF0
:104DC000B38F81E0A4960FB6F894DEBF0FBECDBFBF
:104DD000DF91CF911F910F91FF90EF90DF90CF90D7
:104DE000BF90AF909F908F907F906F905F904F900B
:104DF0003F902F9008954BE050E06BA17CA1CF0134
:104E00000E94F650892B09F0C6CEF501818580FD00
:104E1000C2CE73CF1C9212961C929ACE6E1438F4A6
:104E20006394222309F494CE253E09F0CCCEF12CD4
:104E3000B2CE6E14A8F38CCE2F923F924F925F9217
:104E40006F927F928F929F92AF92BF92CF92DF929A
:104E5000EF92FF920F931F93CF93DF93CDB7DEB7FF
:104E60002E970FB6F894DEBF0FBECDBF9E878D87FD
:104E70007A8769875C874B87DC019E968C919E9729
:104E800080FF45C186FD04C09C968C9183FF4FC076
:104E9000ED85FE85F081F983AD85BE851196BC91C7
:104EA000BA83ED85FE85F281FB83AD85BE851396C1
:104EB000BC91BC83ED85FE85F481FD83AD85BE8507
:104EC0001596BC91BE83ED85FE85F681FF83AD8589
:104ED000BE851796BC91B887ED85FE852088318800
:104EE0004288538864887588868897882B853C8596
:104EF00040E050E060E070E080E090E0A980BA809F
:104F0000CB80DC80ED80FE800F8118850E94B04F41
:104F100051016201730184010E94CE4F41F038F0CB
:104F2000C101A981BA818A1B9B0B9C878B878B84CB
:104F30009C842D843E84B8E12B0E311C8114910495
:104F400009F46FC1ED85FE85F081F983AD85BE85DD
:104F50001196BC91BA83ED85FE85F281FB83AD8508
:104F6000BE851396BC91BC83ED85FE85F481FD83DF
:104F7000AD85BE851596BC91BE83ED85FE85F68117
:104F8000FF83AD85BE851796BC91B887AD85BE857C
:104F90009096ED91FC91DF01AD5DBD4FCD90DD9020
:104FA000ED90FC9089819A81AB81BC81C822D92285
:104FB000EA22FB22260191E05922C114D104E10426
:104FC000F104F9F429813A814B815C816D817E8104
:104FD0008F819885A0E00E94D74F09F072C0AD85FF
:104FE000BE859C968C9186FF65C0E15EFD4F8081F9
:104FF0009181A281B381ED85FE85808F918FA28FF3
:10500000B38FED85FE8580A191A1FC01E25DFD4F8E
:10501000A08149E0F694E794D794C7944A95D1F7D4
:10502000ED85FE85408D518D628D738D4250510905
:10503000610971090A2E04C0440F551F661F771FAE
:105040000A94D2F74C0D5D1D6E1D7F1DFC01E95EBB
:10505000FD4F0081118122813381400F511F621F5A
:10506000731F4114510409F05AC08114F2E09F06E5
:1050700008F455C0FC010381148125813681401755
:1050800051076207730709F44AC08114F4E09F06D0
:1050900008F09AC001E010E029853A85DC011196FC
:1050A0008D919C910E94670C882389F1612C82E08C
:1050B000782E4BC0ED85FE85848D958DA68DB78DA0
:1050C0009ACFAD85BE8558964D915D916D917C913D
:1050D0005B979E968C919E9786FF0AC04F5F5F4FAD
:1050E0006F4F7F4FFD01408F518F628F738F89CF3C
:1050F0009101CF010E94861187FD09C0811181CFE6
:10510000AD85BE859C968C91807509F08AC0ED8531
:10511000FE8585A5826085A78FEF9FEF86C020E082
:1051200032E02419350934012815390508F439010C
:1051300020E00E94120D009751F3BC01640D751D13
:10514000A30189859A850E940351E985FA85E60DB8
:10515000F71DFA87E987930140E050E060E070E0D6
:1051600080E090E0AD85BE85AC901196BC90119723
:105170001296CC9012971396DC9013971496EC909D
:1051800014971596FC90159716960C9116971796EE
:105190001C9117970E94B04F2C9311963C93119736
:1051A00012964C93129713965C93139714966C93E4
:1051B000149715967C93159716968C9316971796B9
:1051C0009C9386189708BACE2401452C5524469402
:1051D000712C612C01E010E020E030E004C0000FF1
:1051E000111F221F331FAA95D2F70C191D092E0972
:1051F0003F09401651066206730610F493018201BE
:105200006801790129E0CC0CDD1CEE1CFF1C2A95FD
:10521000D1F7360129853A850E945016811195CF24
:1052200076CF8B859C85881999092E960FB6F894B0
:10523000DEBF0FBECDBFDF91CF911F910F91FF90C9
:10524000EF90DF90CF90BF90AF909F908F907F9026
:105250006F905F904F903F902F9008956F927F9244
:105260008F929F92AF92BF92CF92DF92EF92FF9276
:105270000F931F93CF93DF93CDB7DEB7A0970FB6F1
:10528000F894DEBF0FBECDBF7C015B016A01FC015B
:1052900084A58823D1F0F70114A616A610E0812F6B
:1052A000A0960FB6F894DEBF0FBECDBFDF91CF91B1
:1052B0001F910F91FF90EF90DF90CF90BF90AF9034
:1052C0009F908F907F906F900895FB0184A58075CB
:1052D00011F300E010E020E030E040E050E060E05A
:1052E00070E0C5010E949D134E01F1E28F0E911CEA
:1052F0006624639481E4782E0FE240E250E0BE0120
:105300006F5F7F4FC5010E941C27809721F689811E
:1053100087FD05C0882309F4BECF10E0EECF111140
:1053200038C0853851F7F701802F11928A95E9F737
:105330008A81F70183A79D81892F877394FF27C0F6
:1053400084A7F50180A191A1F70191A380A3F501A4
:10535000808D918DA28DB38DF70182A393A3A4A319
:10536000B5A3F50180819181A281B3818097A109C4
:10537000B109F70186A397A3A0A7B1A7F50186A558
:1053800086FB882780F9F70182A711E0B6CF8860F5
:10539000D7CF803C09F044C0F70166A68A8181FD21
:1053A00076A68985F701808B8A85818B8B85828B98
:1053B0008C85838B8D85848B8E85858B8F85868B65
:1053C0008889878B8D899E89AF89B88D848F958FC9
:1053D000A68FB78F898D80878A8D81878B8D8287F5
:1053E0008C8D83878D8D84878E8D85878F8D868725
:1053F00088A18787F60180819181938382832C81A4
:10540000868197812817190609F087CF11E020853A
:1054100031858D819E812817390709F07ECF6DCFA8
:10542000813C09F07ACFF60124813581BE016D5FA0
:105430007F4FFB0181919191BF01F601A281B38160
:10544000A217B307B1F4892B09F067CFF601828167
:1054500093818217930709F050CFF70186A581FF4A
:105460001ECF84A5982F917109F015CF806284A773
:1054700016CFAD014F5F5F4F538342834C918F37FF
:10548000910508F04ACF5FE9540F5A3108F44052B1
:105490005FE9580F5A3108F4805284133ECF8616C4
:1054A000970639F6D3CF4F925F926F927F928F9289
:1054B0009F92AF92BF92CF92DF92EF92FF920F93A3
:1054C0001F93CF93DF931F92CDB7DEB7FC0104ADDE
:1054D00015AD0115110599F1F80180889188A28810
:1054E000B388C484D584E684F78441E050E0BE01EB
:1054F0006F5F7F4FC8010E94C2230197E9F4898141
:1055000090E0F801808A918AA28AB38AC486D586FF
:10551000E686F7860F90DF91CF911F910F91FF9054
:10552000EF90DF90CF90BF90AF909F908F907F9043
:105530006F905F904F9008958FEF9FEFE2CF06AD91
:1055400017AD8FEF9FEF0115110521F3F801408092
:1055500051806280738084809580A680B780C08CE3
:10556000D18CE28CF38C41E050E0BE016F5F7F4F45
:10557000C8010E941C27019781F4898190E0F801FD
:10558000408251826282738284829582A682B7822F
:10559000C08ED18EE28EF38EBDCF8FEF9FEFEFCF17
:1055A000FC0180A991A9009711F00C94C22382A953
:1055B00093A9009711F00C941C278FEF9FEF08958B
:1055C000CF93DF931F92CDB7DEB741E050E0BE012D
:1055D0006F5F7F4F0C960E94D02A019731F489812A
:1055E00090E00F90DF91CF9108958FEF9FEFF9CF6B
:1055F0002F923F924F925F926F927F928F929F92E3
:10560000AF92BF92CF92DF92EF92FF920F931F93D0
:10561000CF93DF93CDB7DEB762970FB6F894DEBFB6
:105620000FBECDBF7A8769875E874D87DC01D09634
:105630000D90BC91A02DB88BAF87109709F483C152
:1056400012968C9181FFBCC083FDADC0ED85FE85B7
:10565000AF0170E060E0EF85F88980899189A289C7
:10566000B38980959095A095B09584179507A60766
:10567000B70708F4A5C0CD84DE8444244A94542C92
:1056800032013C96FC87EB87EF85F889808891880A
:10569000A288B388C114D10409F428C126803780B8
:1056A000D1011396FC90B501A40199E07695679518
:1056B000579547959A95D1F7F42284011170F1100E
:1056C00023C044855585668577850115110509F048
:1056D000D9C3411551056105710509F4A9C022819D
:1056E00026FF76C0808D918DA28DB38D8816990688
:1056F000AA06BB0608F06CC04F5F5F4F6F4F7F4F2D
:105700004487558766877787AF85B8891696ED9168
:10571000FC9117971C964D915D916D917C911F970F
:105720004250510961097109848104C0440F551F19
:10573000661F771F8A95D2F780899189A289B389DC
:10574000840F951FA61FB71FAC01BD014F0D511D42
:10575000611D711D0115110509F0A9C3C114B2E045
:10576000DB0608F4A4C383A094A0A5A0B6A021A042
:1057700032A0C11424E0D20608F07EC048155905B5
:105780006A057B0529F410A243A254A265A276A261
:1057900029853A85C1010E94BC0B882389F0E12C40
:1057A00052E0F52EC8C3AF85B88958964D915D91EA
:1057B0006D917C915B97CD010E949E0F811146CF28
:1057C000EF85F8898181816081831E861D86A0C056
:1057D0002B853C85C1010E94CC0E87FDF1CF811144
:1057E00006C08F8598890E947E10882349F3AF8573
:1057F000B8891696ED91FC9117971C964D915D9185
:105800006D917C911F974250510961097109848102
:1058100004C0440F551F661F771F8A95D2F78089F1
:105820009189A289B389480F591F6A1F7B1F96CFA0
:10583000EF85F889848D958DA68DB78D0097A1058C
:10584000B10589F4CF010E947E10882309F4B8CFF6
:10585000EF85F88984859585A685B785848F958F92
:10586000A68FB78F51CFEF85F88984879587A68754
:10587000B7874ACF21E042C38601012F1127069541
:1058800030E020E082818F19990B092E000CAA0BC1
:10589000BB0B081719072A073B0710F4D901C801E9
:1058A0008C019D010F2EF9E0000F111F221F331FE5
:1058B000FA95D1F7F02D78018C0184169506A6068D
:1058C000B70670F0840F951FA61FB71F881699069C
:1058D000AA06BB0628F410A243A254A265A276A28F
:1058E00029853A85C1010E943D0B22C3EF85F889C5
:1058F000808D918DA28DB38D88159905AA05BB0564
:1059000038F4808E918EA28EB38E828180688283DD
:105910008D859E8562960FB6F894DEBF0FBECDBF13
:10592000DF91CF911F910F91FF90EF90DF90CF907B
:10593000BF90AF909F908F907F906F905F904F90AF
:105940003F902F900895DC01D2960D90BC91A02D30
:10595000BA8BA98B109709F438CF9E968C9181FF52
:105960000CC183FDEBC0ED85FE85FC87EB872989A3
:105970003A89285E3F4F388B2F87E989FA89208042
:1059800031804280538064807580868097802B852B
:105990003C85232B09F435C200A0F1A1E02DDF01E5
:1059A000AD5DBD4FCD90DD90ED90FC90C220D32039
:1059B000E420F520160131E03322C114D104E104C2
:1059C000F10409F056C0A989BA8958968D909D9026
:1059D000AD90BC905B9781149104A104B10409F4CB
:1059E000F0C09E968C919E9786FFDBC05C964D9092
:1059F0005D906D907C905F9718962C9118971996F2
:105A00003C9119971A964C911A971B965C911B978B
:105A10001C966C911C971D967C911D971E968C91DF
:105A20001E971F969C91AFEF0E94B94FE25DFD4F0C
:105A30000081075F0E94954F29833A834B835C83E3
:105A40006D837E838F83988729813A814B815C8126
:105A5000420E531E641E751E84149504A604B704DA
:105A600008F491C089899A890E94E212882309F476
:105A700084C0A989BA899096ED91FC91DF01A25D5D
:105A8000BD4F2C9129834601570149E0B694A79454
:105A9000979487944A95D1F7A989BA8958964D90D9
:105AA0005D906D907C905B97B2E04B1A5108610855
:105AB000710804C0440C551C661C771C2A95D2F74B
:105AC000480C591C6A1C7B1CDF01A95EBD4F8D91DF
:105AD0009D910D90BC91A02D480E591E6A1E7B1EF3
